:020000040800F2
:10E0000008380220CD850208DD850208DF85020878
:10E01000E1850208E3850208E585020800000000AA
:10E0200000000000000000000000000001E1000806
:10E03000E98502080000000035E10008FBC6010880
:10E04000A7B60208BFB60208EB850208F9B60208B7
:10E0500099BE030800000000D9BF030881BF030870
:10E0600073BF0308ADCC0208CBCC0208EBCC02088E
:10E070000BCD02086DC1020871C1020875C102080A
:10E0800079C102087DC10208EB850208FFB40208CD
:10E09000EB85020897A202081BB7020891910208BB
:10E0A00033920208FBB802080B9902080F99020884
:10E0B00013990208179902081B9902081F99020870
:10E0C0006BD70208EB850208EB850208A1AB0208BA
:10E0D0001FC602082BAB0208E5F40208F3F402089D
:10E0E00033B902084393020800000000DFF80CD0A7
:10E0F00048F04CF900480047EB8702080838022036
:10E10000174B19680868B0E8F00F80F309884FF0E2
:10E11000000080F311884EF00D0E704700000000E3
:10E1200003480068006880F3088862B600DF00BF1B
:10E1300008ED00E072B6EFF30980094B1A6820E998
:10E14000F00F106008B50DF024F9BDE8084019681B
:10E150000868B0E8F00F80F3098862B6704700BF26
:10E16000C407002001B4EFF3108072B601BC704701
:10E1700001B4EFF3108062B601BC7047EFF3058085
:10E180007047000010B50AA048F022FB02F0BEFA6A
:10E1900002F075FA01F05BFE02F0A4FD00F048F811
:10E1A00000F022F800F031F8BDE8104000F053B85C
:10E1B0000A2057656C636F6D6520746F20757365F9
:10E1C000207468652053616D7274204D65746572AA
:10E1D000206D616465206279204E656F636F7265A2
:10E1E0002121210A000000001FB5202123480DF045
:10E1F00094FC202222480023D1018DE80F00214AFF
:10E20000194618460DF008F81FBD1FB51B48202100
:10E21000001D0DF082FC1C48002321224FF4805188
:10E220008DE80F00194A194618460CF0F5FF1FBD7E
:10E230001FB51248202108300DF06FFC1448002350
:10E2400022224FF480518DE80F00124A19461846D9
:10E250000CF0E2FF1FBD1FB5084820210C300DF067
:10E260005CFC0D48002323224FF480518DE80F0001
:10E270000A4A194618460CF0CFFF1FBD00000020C7
:10E280008C1C0020C1E200088C2C002061FE0008DC
:10E290008C3C0020350301088C4C00200D0901083E
:10E2A00010B504460022222011461CF0C5FB214671
:10E2B000BDE8104022201CF0D1BA22201DF056BB30
:10E2C0004FF4807420460DF054FEFBE710B5022297
:10E2D000002116201CF0B0FB0222002117201CF0A8
:10E2E000ABFB0222002101201CF0A6FB0222002130
:10E2F000BDE8104019201CF09FBB70B50E460546C6
:10E30000002415E0280601D5012100E000210120AC
:10E310001CF0A4FA002116201CF0A0FA00BF00BFD8
:10E32000012116201CF09AFA6806050E641CE4B25E
:10E33000B442E7D370BD70B50E460546002414E024
:10E34000E80701D0012100E0002101201CF086FA3D
:10E35000002116201CF082FA00BF00BF0121162008
:10E360001CF07CFA6D08641CE4B2B442E8D370BDC2
:10E3700010B50446002117201CF070FA03218020FC
:10E38000FFF7BBFF09212046FFF7B7FF0121BDE8DA
:10E39000104017201CF062BA70B50D4604460021EB
:10E3A00017201CF05BFA0321A020FFF7A6FFA006B0
:10E3B000000E0621FFF7A1FF04212846FFF7BBFF4F
:10E3C000BDE87040012117201CF048BA70B5400626
:10E3D000050E0E46002431462846FFF7DDFF6D1C72
:10E3E000641C3609E4B2EDB2022CF4D370BD70B5F2
:10E3F00044001546002117201CF030FA0321A0200C
:10E40000FFF77BFFA006000E0621FFF776FF002432
:10E4100028780421FFF78FFF287804210009FFF7EF
:10E420008AFF641CE4B2082CF2D3BDE870400121DD
:10E4300017201CF013BA2021F84A0020D7E730B487
:10E440000A46F64B01248440995C10462143C9B228
:10E45000995430BCBAE730B4F04B0A460446995C94
:10E460000120A0408143995430BC1046AEE710B55E
:10E47000002117201CF0F2F90321A020FFF73DFF37
:10E4800006210020FFF739FF002404210020FFF7B8
:10E4900052FF04210020FFF74EFF641CE4B2202C41
:10E4A000F3D3012117201CF0D9F90020DB4A0146E3
:10E4B0001154401CC0B22028FAD310BD10B5002161
:10E4C00017201CF0CBF90321A020FFF716FF06212F
:10E4D0000020FFF712FF00240421FF20FFF72BFF8D
:10E4E0000421FF20FFF727FF641CE4B2202CF3D3A4
:10E4F000012117201CF0B2F90020C84AFF21115455
:10E50000401CC0B22028FAD310BD10B50024012150
:10E5100019201CF0A3F9C14900200855641CE4B27D
:10E52000202CFAD31820FFF723FF0120FFF720FF4C
:10E53000BDE8104003201BE770B5162517241128ED
:10E540007ED2DFE800F009161B283E4F656A8596EB
:10E55000A7B4BDDAF2FFEF0029460220FFF76FFFF4
:10E5600029460320FFF76BFF29460420FFF767FFCA
:10E57000B2E029460220FFF76EFF52E02946022052
:10E58000FFF75DFF29460320FFF759FF29460420C6
:10E59000FFF761FFBDE029460220FFF750FF294643
:10E5A0000320FFF74CFF29460420FFF748FF2146D0
:10E5B0000520FFF744FFEAE021460220FFF74BFF6A
:10E5C00021E029460220FFF746FF29460320FFF7F6
:10E5D00036FF29460420FFF732FF21460520FFF7CA
:10E5E0003AFF08E029460220FFF729FF29460320C9
:10E5F000FFF731FF45E021460420FFF72CFF2146BD
:10E600000220FFF71CFF2146BDE87040032016E7FB
:10E6100029460220FFF713FF4DE029460220FFF7AD
:10E620000EFF29460320FFF70AFF29460420FFF7C3
:10E6300006FF21460520FFF70EFF2146042000E0DB
:10E64000AAE0FFF708FF21460220FFF704FF4FE092
:10E6500029460220FFF7F3FE29460320FFF7EFFECD
:10E6600029460420FFF7EBFE21460520FFF7E7FED1
:10E6700078E029460220FFF7E2FE29460320FFF753
:10E68000DEFE29460420FFF7DAFE21460520FFF7CB
:10E69000D6FEB0E729460220FFF7D1FE2946032027
:10E6A000FFF7CDFE29460420FFF7C9FE56E02946B4
:10E6B0000220FFF7D0FE29460320FFF7CCFECFE76C
:10E6C00029460220FFF7BBFE29460320FFF7C3FEC1
:10E6D00029460420FFF7BFFE21460520FFF7AFFEC5
:10E6E00021460420FFF7ABFE21460220FFF7A7FEDC
:10E6F0002146BDE870400320ADE629460220FFF721
:10E70000AAFE29460320FFF79AFE29460420FFF7B8
:10E7100096FE21460520FFF792FE21460420FFF7D2
:10E720008EFE49E723E00DE0FFE729460220FFF7D0
:10E7300086FE29460320FFF78EFE29460420FFF7B8
:10E740008AFE91E729460220FFF779FE2946032039
:10E75000FFF781FE29460420FFF77DFE21460520B4
:10E76000FFF779FE21460420FFF769FE47E72946B7
:10E770000220FFF770FE29460320FFF76CFE2946B2
:10E780000420FFF768FE21460520FFF764FE2146BE
:10E790000420FFF760FE0FE770BD70B51425152447
:10E7A00011286ED2DFE800F009161B284152686E6E
:10E7B0008798A9B6BFDCF4F2F10029460220FFF7E2
:10E7C0003EFE29460320FFF73AFE29460420FFF7C4
:10E7D00036FEB4E029460220FFF73DFE56E029460A
:10E7E0000220FFF72CFE29460320FFF728FE2946CA
:10E7F0000420FFF730FEBFE029460220FFF71FFE8E
:10E8000029460320FFF71BFE29460420FFF717FEC9
:10E8100021460520FFF713FEECE000008C5C002091
:10E8200021460220FFF717FE21E029460220FFF7CC
:10E8300012FE29460320FFF702FE29460420FFF7B7
:10E84000FEFD21460520FFF706FE08E029460220CE
:10E85000FFF7F5FD29460320FFF7FDFD44E02146C3
:10E860000420FFF7F8FD21460220FFF7E8FD2146CE
:10E87000BDE870400320E2E529460220FFF7DFFDF6
:10E880004CE0BCE029460220FFF7D9FD29460320D1
:10E89000FFF7D5FD29460420FFF7D1FD21460520CD
:10E8A000FFF7D9FD21460420FFF7D5FD21460220C0
:10E8B000FFF7D1FD4FE029460220FFF7C0FD2946B2
:10E8C0000320FFF7BCFD29460420FFF7B8FD2146D1
:10E8D0000520FFF7B4FD78E029460220FFF7AFFDE1
:10E8E00029460320FFF7ABFD29460420FFF7A7FDCB
:10E8F00021460520FFF7A3FDB1E729460220FFF7D7
:10E900009EFD29460320FFF79AFD29460420FFF7C4
:10E9100096FD56E029460220FFF79DFD294603207B
:10E92000FFF799FDCFE729460220FFF788FD29462A
:10E930000320FFF790FD29460420FFF78CFD2146B8
:10E940000520FFF77CFD21460420FFF778FD2146D6
:10E950000220FFF774FD2146BDE8704003207AE5F0
:10E9600029460220FFF777FD29460320FFF767FDC0
:10E9700029460420FFF763FD21460520FFF75FFDD0
:10E9800021460420FFF75BFD4AE723E00DE0FFE7A7
:10E9900029460220FFF753FD29460320FFF75BFDC0
:10E9A00029460420FFF757FD91E729460220FFF78B
:10E9B00046FD29460320FFF74EFD29460420FFF7B8
:10E9C0004AFD21460520FFF746FD21460420FFF7BA
:10E9D00036FD48E729460220FFF73DFD2946032082
:10E9E000FFF739FD29460420FFF735FD21460520B4
:10E9F000FFF731FD21460420FFF72DFD10E770BD24
:10EA000070B51225132411287ED2DFE800F0091614
:10EA10001B283E4F656A8596A7B4BDDAF2FFEF006A
:10EA200029460220FFF70BFD29460320FFF707FDCB
:10EA300029460420FFF703FDB2E029460220FFF734
:10EA40000AFD52E029460220FFF7F9FC294603207F
:10EA5000FFF7F5FC29460420FFF7FDFCBDE0294641
:10EA60000220FFF7ECFC29460320FFF7E8FC2946CB
:10EA70000420FFF7E4FC21460520FFF7E0FCEAE074
:10EA800021460220FFF7E7FC21E029460220FFF79C
:10EA9000E2FC29460320FFF7D2FC29460420FFF7B9
:10EAA000CEFC21460520FFF7D6FC08E029460220CF
:10EAB000FFF7C5FC29460320FFF7CDFC45E02146C2
:10EAC0000420FFF7C8FC21460220FFF7B8FC2146CE
:10EAD000BDE870400320B2E429460220FFF7AFFCF6
:10EAE0004DE029460220FFF7AAFC29460320FFF744
:10EAF000A6FC29460420FFF7A2FC21460520FFF7CB
:10EB0000AAFC2146042000E0AAE0FFF7A4FC21466D
:10EB10000220FFF7A0FC4FE029460220FFF78FFC00
:10EB200029460320FFF78BFC29460420FFF787FCCA
:10EB300021460520FFF783FC78E029460220FFF7F5
:10EB40007EFC29460320FFF77AFC29460420FFF7C4
:10EB500076FC21460520FFF772FCB0E7294602202B
:10EB6000FFF76DFC29460320FFF769FC29460420C6
:10EB7000FFF765FC56E029460220FFF76CFC2946AA
:10EB80000320FFF768FCCFE729460220FFF757FC78
:10EB900029460320FFF75FFC29460420FFF75BFCB2
:10EBA00021460520FFF74BFC21460420FFF747FCD8
:10EBB00021460220FFF743FC2146BDE870400320B8
:10EBC00049E429460220FFF746FC29460320FFF7C7
:10EBD00036FC29460420FFF732FC21460520FFF7CA
:10EBE0002EFC21460420FFF72AFC49E723E00DE034
:10EBF000FFE729460220FFF722FC29460320FFF702
:10EC00002AFC29460420FFF726FC91E7294602202A
:10EC1000FFF715FC29460320FFF71DFC29460420B9
:10EC2000FFF719FC21460520FFF715FC21460420BB
:10EC3000FFF705FC47E729460220FFF70CFC2946B1
:10EC40000320FFF708FC29460420FFF704FC2146B7
:10EC50000520FFF700FC21460420FFF7FCFB0FE72F
:10EC600070BD70B51025112411287DD2DFE800F0A9
:10EC700009161B283E4F666B8697A8B5BEDCF4F2DA
:10EC8000F10029460220FFF7DAFB29460320FFF7AF
:10EC9000D6FB29460420FFF7D2FBB3E02946022029
:10ECA000FFF7D9FB53E029460220FFF7C8FB2946AE
:10ECB0000320FFF7C4FB29460420FFF7CCFBBFE08D
:10ECC00029460220FFF7BBFB29460320FFF7B7FBCD
:10ECD00029460420FFF7B3FB21460520FFF7AFFBD1
:10ECE000ECE021460220FFF7B6FB21E02946022096
:10ECF000FFF7B1FB29460320FFF7A1FB29460420BB
:10ED0000FFF79DFB21460520FFF7A5FB08E02946FC
:10ED10000220FFF794FB29460320FFF79CFB46E007
:10ED200021460420FFF797FB21460220FFF787FBCF
:10ED30002146BDE870400320FFF781BB2946022031
:10ED4000FFF77DFB4DE029460220FFF778FB2946BF
:10ED50000320FFF774FB29460420FFF770FB2146D0
:10ED60000520FFF778FB00E0ADE021460420FFF727
:10ED700072FB21460220FFF76EFB4FE0294602207E
:10ED8000FFF75DFB29460320FFF759FB29460420C6
:10ED9000FFF755FB21460520FFF751FB79E0294697
:10EDA0000220FFF74CFB29460320FFF748FB2946CA
:10EDB0000420FFF744FB21460520FFF740FBAFE7A7
:10EDC00029460220FFF73BFB29460320FFF737FBCC
:10EDD00029460420FFF733FB57E029460220FFF7BE
:10EDE0003AFB29460320FFF736FBCFE729460220EE
:10EDF000FFF725FB29460320FFF72DFB29460420BA
:10EE0000FFF729FB21460520FFF719FB21460420C7
:10EE1000FFF715FB21460220FFF711FB2146BDE855
:10EE200070400320FFF717BB29460220FFF713FBB2
:10EE300029460320FFF703FB29460420FFF7FFFACA
:10EE400021460520FFF7FBFA21460420FFF7F7FAD9
:10EE500047E723E00DE0FFE729460220FFF7EFFA3E
:10EE600029460320FFF7F7FA29460420FFF7F3FAB3
:10EE700090E729460220FFF7E2FA29460320FFF730
:10EE8000EAFA29460420FFF7E6FA21460520FFF7B3
:10EE9000E2FA21460420FFF7D2FA45E7294602208C
:10EEA000FFF7D9FA29460320FFF7D5FA29460420AF
:10EEB000FFF7D1FA21460520FFF7CDFA21460420BD
:10EEC000FFF7C9FA0DE770BD70B50E250F241128A4
:10EED0007ED2DFE800F009161B283E4F666B86974E
:10EEE000A8B5BEDCF4F2F10029460220FFF7A7FA2C
:10EEF00029460320FFF7A3FA29460420FFF79FFACB
:10EF0000B3E029460220FFF7A6FA53E02946022083
:10EF1000FFF795FA29460320FFF791FA29460420C6
:10EF2000FFF799FABFE029460220FFF788FA294641
:10EF30000320FFF784FA29460420FFF780FA2146D0
:10EF40000520FFF77CFAECE021460220FFF783FA68
:10EF500021E029460220FFF77EFA29460320FFF729
:10EF60006EFA29460420FFF76AFA21460520FFF7CA
:10EF700072FA08E029460220FFF761FA29460320C9
:10EF8000FFF769FA46E021460420FFF764FA2146BC
:10EF90000220FFF754FA2146BDE870400320FFF736
:10EFA0004EBA29460220FFF74AFA4DE029460220D0
:10EFB000FFF745FA29460320FFF741FA29460420C6
:10EFC000FFF73DFA21460520FFF745FA214600E00C
:10EFD000ACE00420FFF73FFA21460220FFF73BFA9E
:10EFE0004FE029460220FFF72AFA29460320FFF7BF
:10EFF00026FA29460420FFF722FA21460520FFF7CA
:10F000001EFA79E029460220FFF719FA2946032063
:10F01000FFF715FA29460420FFF711FA21460520CB
:10F02000FFF70DFAAFE729460220FFF708FA294655
:10F030000320FFF704FA29460420FFF700FA57E0FF
:10F0400029460220FFF707FA29460320FFF703FAB3
:10F05000CFE729460220FFF7F2F929460320FFF700
:10F06000FAF929460420FFF7F6F921460520FFF7B3
:10F07000E6F921460420FFF7E2F921460220FFF7D6
:10F08000DEF92146BDE870400320FFF7E4B92946C8
:10F090000220FFF7E0F929460320FFF7D0F92946BF
:10F0A0000420FFF7CCF921460520FFF7C8F92146D7
:10F0B0000420FFF7C4F947E723E00DE0FFE7294606
:10F0C0000220FFF7BCF929460320FFF7C4F92946BF
:10F0D0000420FFF7C0F990E729460220FFF7AFF9B7
:10F0E00029460320FFF7B7F929460420FFF7B3F9B3
:10F0F00021460520FFF7AFF921460420FFF79FF9CD
:10F1000045E729460220FFF7A6F929460320FFF725
:10F11000A2F929460420FFF79EF921460520FFF7B2
:10F120009AF921460420FFF796F90DE770BD70B5F6
:10F130000725062411287DD2DFE800F009161B28D8
:10F140003E4F666B8697A8B5BEDCF4F2F100294607
:10F150000220FFF774F929460320FFF770F92946CA
:10F160000420FFF76CF9B3E029460220FFF773F99A
:10F1700053E029460220FFF762F929460320FFF7F2
:10F180005EF929460420FFF766F9BFE02946022010
:10F19000FFF755F929460320FFF751F929460420C6
:10F1A000FFF74DF921460520FFF749F9ECE021462C
:10F1B0000220FFF750F921E029460220FFF74BF922
:10F1C00029460320FFF73BF929460420FFF737F9CA
:10F1D00021460520FFF73FF908E029460220FFF706
:10F1E0002EF929460320FFF736F946E02146042090
:10F1F000FFF731F921460220FFF721F92146BDE84A
:10F2000070400320FFF71BB929460220FFF717F9CA
:10F210004DE029460220FFF712F929460320FFF7A7
:10F220000EF929460420FFF70AF921460520FFF7C9
:10F2300012F900E0ADE021460420FFF70CF9214669
:10F240000220FFF708F94FE029460220FFF7F7F800
:10F2500029460320FFF7F3F829460420FFF7EFF8CB
:10F2600021460520FFF7EBF879E029460220FFF759
:10F27000E6F829460320FFF7E2F829460420FFF7C5
:10F28000DEF821460520FFF7DAF8AFE7294602202D
:10F29000FFF7D5F829460320FFF7D1F829460420C7
:10F2A000FFF7CDF857E029460220FFF7D4F82946AA
:10F2B0000320FFF7D0F8CFE729460220FFF7BFF879
:10F2C00029460320FFF7C7F829460420FFF7C3F8B3
:10F2D00021460520FFF7B3F821460420FFF7AFF8D9
:10F2E00021460220FFF7ABF82146BDE8704003201D
:10F2F000FFF7B1B829460220FFF7ADF829460320F1
:10F30000FFF79DF829460420FFF799F821460520CC
:10F31000FFF795F821460420FFF791F847E723E02F
:10F320000DE0FFE729460220FFF789F82946032070
:10F33000FFF791F829460420FFF78DF890E729465A
:10F340000220FFF77CF829460320FFF784F82946BE
:10F350000420FFF780F821460520FFF77CF82146BE
:10F360000420FFF76CF845E729460220FFF773F801
:10F3700029460320FFF76FF829460420FFF76BF8B2
:10F3800021460520FFF767F821460420FFF763F8C0
:10F390000DE770BD70B50925082411287ED2DFE87D
:10F3A00000F009161B283E4F666B8697A8B5BEDC99
:10F3B000F4F2F10029460220FFF741F82946032024
:10F3C000FFF73DF829460420FFF739F8B3E0294656
:10F3D0000220FFF740F853E029460220FFF72FF8FC
:10F3E00029460320FFF72BF829460420FFF733F8BE
:10F3F000BFE029460220FFF722F829460320FFF745
:10F400001EF829460420FFF71AF821460520FFF7C9
:10F4100016F8ECE021460220FFF71DF821E029460E
:10F420000220FFF718F829460320FFF708F82946BD
:10F430000420FFF704F821460520FFF70CF808E048
:10F4400029460220FEF7FBFF29460320FFF703F8B9
:10F4500046E021460420FEF7FEFF21460220FEF78B
:10F46000EEFF2146BDE870400320FEF7E8BF2946C5
:10F470000220FEF7E4FF4DE029460220FEF7DFFF01
:10F4800029460320FEF7DBFF29460420FEF7D7FFBD
:10F4900021460520FEF7DFFF214600E0ACE0042016
:10F4A000FEF7D9FF21460220FEF7D5FF4FE029469F
:10F4B0000220FEF7C4FF29460320FEF7C0FF2946BD
:10F4C0000420FEF7BCFF21460520FEF7B8FF79E0D7
:10F4D00029460220FEF7B3FF29460320FEF7AFFFBF
:10F4E00029460420FEF7ABFF21460520FEF7A7FFC3
:10F4F000AFE729460220FEF7A2FF29460320FEF7C8
:10F500009EFF29460420FEF79AFF57E02946022075
:10F51000FEF7A1FF29460320FEF79DFFCFE729460E
:10F520000220FEF78CFF29460320FEF794FF2946B0
:10F530000420FEF790FF21460520FEF780FF2146BC
:10F540000420FEF77CFF21460220FEF778FF2146CB
:10F55000BDE870400320FEF77EBF29460220FEF77B
:10F560007AFF29460320FEF76AFF29460420FEF7AA
:10F5700066FF21460520FEF762FF21460420FEF7C4
:10F580005EFF47E723E00DE0FFE729460220FEF794
:10F5900056FF29460320FEF75EFF29460420FEF7AA
:10F5A0005AFF90E729460220FEF749FF294603202B
:10F5B000FEF751FF29460420FEF74DFF21460520A6
:10F5C000FEF749FF21460420FEF739FF45E72946AB
:10F5D0000220FEF740FF29460320FEF73CFF2946A4
:10F5E0000420FEF738FF21460520FEF734FF2146B0
:10F5F0000420FEF730FF0DE770BD70B50B250A241F
:10F6000011287DD2DFE800F009161B283E4F666BFB
:10F610008697A8B5BEDCF4F2F10029460220FEF779
:10F620000EFF29460320FEF70AFF29460420FEF7B5
:10F6300006FFB3E029460220FEF70DFF53E02946FE
:10F640000220FEF7FCFE29460320FEF7F8FE2946BD
:10F650000420FEF700FFBFE029460220FEF7EFFE80
:10F6600029460320FEF7EBFE29460420FEF7E7FEBD
:10F6700021460520FEF7E3FEECE021460220FEF7DE
:10F68000EAFE21E029460220FEF7E5FE2946032096
:10F69000FEF7D5FE29460420FEF7D1FE21460520BF
:10F6A000FEF7D9FE08E029460220FEF7C8FE2946EB
:10F6B0000320FEF7D0FE46E021460420FEF7CBFEF5
:10F6C00021460220FEF7BBFE2146BDE87040032024
:10F6D000FEF7B5BE29460220FEF7B1FE4DE02946F1
:10F6E0000220FEF7ACFE29460320FEF7A8FE2946BD
:10F6F0000420FEF7A4FE21460520FEF7ACFE00E044
:10F70000ADE021460420FEF7A6FE21460220FEF7CA
:10F71000A2FE4FE029460220FEF791FE2946032073
:10F72000FEF78DFE29460420FEF789FE21460520BE
:10F73000FEF785FE79E029460220FEF780FE294685
:10F740000320FEF77CFE29460420FEF778FE2146C2
:10F750000520FEF774FEAFE729460220FEF76FFE94
:10F7600029460320FEF76BFE29460420FEF767FEBC
:10F7700057E029460220FEF76EFE29460320FEF7D9
:10F780006AFECFE729460220FEF759FE29460320EC
:10F79000FEF761FE29460420FEF75DFE21460520A6
:10F7A000FEF74DFE21460420FEF749FE21460220C9
:10F7B000FEF745FE2146BDE870400320FEF74BBE34
:10F7C00029460220FEF747FE29460320FEF737FEB2
:10F7D00029460420FEF733FE21460520FEF72FFEC2
:10F7E00021460420FEF72BFE47E723E00DE0FFE76C
:10F7F00029460220FEF723FE29460320FEF72BFEB2
:10F8000029460420FEF727FE90E729460220FEF74E
:10F8100016FE29460320FEF71EFE29460420FEF7A9
:10F820001AFE21460520FEF716FE21460420FEF7AB
:10F8300006FE45E729460220FEF70DFE2946032075
:10F84000FEF709FE29460420FEF705FE21460520A5
:10F85000FEF701FE21460420FEF7FDFD0DE770BD19
:10F8600010B5012410286ED2DFE800F008151A2721
:10F870004051686E8798A9B6BFDDF4F22146012099
:10F88000FEF7DDFD05210320FEF7D9FD2146062008
:10F89000FEF7D5FDB5E021460120FEF7DCFD57E07F
:10F8A00021460120FEF7CBFD05210320FEF7C7FD11
:10F8B00021460620FEF7CFFDC1E021460120FEF7DC
:10F8C000BEFD05210320FEF7BAFD21460620FEF706
:10F8D000B6FD21460520FEF7B2FD21460420FEF7C5
:10F8E000BAFD21460220FEF7B6FD21E021460120A7
:10F8F000FEF7B1FD05210320FEF7A1FD21460620FC
:10F90000FEF79DFD21460520FEF7A5FD08E02146F6
:10F910000120FEF794FD05210320FEF79CFD45E044
:10F9200021460420FEF797FD21460220FEF787FDC1
:10F930002146BDE810400320FEF781BD214601208D
:10F94000FEF77DFD4CE0A7E021460120FEF777FDA4
:10F9500005210320FEF773FD21460620FEF76FFD0B
:10F9600021460520FEF777FD21460420FEF773FDB2
:10F9700021460220FEF76FFD4FE021460120FEF7F1
:10F980005EFD05210320FEF75AFD21460620FEF705
:10F9900056FD21460520FEF752FD78E02146012064
:10F9A000FEF74DFD05210320FEF749FD2146062007
:10F9B000FEF745FD21460520FEF741FDB0E7214653
:10F9C0000120FEF73CFD05210320FEF738FD21460E
:10F9D0000620FEF734FD56E021460120FEF73BFDF0
:10F9E00005210320FEF737FDCFE721460120FEF772
:10F9F00026FD05210320FEF72EFD21460620FEF7F9
:10FA00002AFD21460520FEF71AFD21460420FEF7B7
:10FA100016FD21460220FEF712FD2146BDE81040EA
:10FA20000320FEF718BD21460120FEF714FD052135
:10FA30000320FEF704FD21460620FEF700FD2146C7
:10FA40000520FEF7FCFC21460420FEF7F8FC48E701
:10FA50000DE0FFE721460120FEF7F1FC0521032020
:10FA6000FEF7F9FC21460620FEF7F5FC91E721465A
:10FA70000120FEF7E4FC05210320FEF7ECFC214603
:10FA80000620FEF7E8FC21460520FEF7E4FC2146AF
:10FA90000420FEF7D4FC47E710BD10B5102101206B
:10FAA000FEF7CDFC1021BDE810400520FEF7C7BCD5
:10FAB00010B507210520FEF7C2FC0721BDE8104064
:10FAC0000120FEF7BCBC10B516210220FEF7C3FCD6
:10FAD00016210320FEF7BFFC16210420FEF7BBFC15
:10FAE00017210520FEF7B7FC17210420FEF7B3FC11
:10FAF00017210220FEF7AFFC17210320FEF7ABFC15
:10FB000014210220FEF7A7FC14210320FEF7A3FC1A
:10FB100014210420FEF79FFC15210520FEF79BFC15
:10FB200015210420FEF797FC15210220FEF793FC17
:10FB300015210320FEF78FFC12210220FEF78BFC1B
:10FB400012210320FEF787FC12210420FEF783FC1C
:10FB500013210520FEF77FFC13210420FEF77BFC18
:10FB600013210220FEF777FC13210320FEF773FC1C
:10FB700010210220FEF76FFC10210320FEF76BFC22
:10FB800010210420FEF767FC11210520FEF763FC1D
:10FB900011210420FEF75FFC11210220FEF75BFC1F
:10FBA00011210320FEF757FC0E210220FEF753FC23
:10FBB0000E210320FEF74FFC0E210420FEF74BFC24
:10FBC0000F210520FEF747FC0F210420FEF743FC20
:10FBD0000F210220FEF73FFC0F210320FEF73BFC24
:10FBE00007210220FEF737FC07210320FEF733FC34
:10FBF00007210420FEF72FFC06210520FEF72BFC31
:10FC000006210420FEF727FC06210220FEF723FC34
:10FC100006210320FEF71FFC09210220FEF71BFC32
:10FC200009210320FEF717FC09210420FEF713FC2D
:10FC300008210520FEF70FFC08210420FEF70BFC2D
:10FC400008210220FEF707FC08210320FEF703FC31
:10FC50000B210220FEF7FFFB0B210320FEF7FBFB2D
:10FC60000B210420FEF7F7FB0A210520FEF7F3FB2A
:10FC70000A210420FEF7EFFB0A210220FEF7EBFB2E
:10FC80000A210320FEF7E7FB16210520FEF7E3FB20
:10FC900014210520FEF7DFFB12210520FEF7DBFB18
:10FCA00010210520FEF7D7FB0E210520FEF7D3FB20
:10FCB00007210520FEF7CFFB09210520FEF7CBFB2E
:10FCC00010210120FEF7C7FB0721BDE810400120ED
:10FCD000FEF7C1BB10B57BA046F07AFD09210120DB
:10FCE000FEF7ADFB0A21BDE810400120FEF7A7BBDF
:10FCF0002DE9F04116460C460546FFF7E4FE0A20C2
:10FD0000B6FBF0F8B6FBF0F100FB1166B4FBF0F7C0
:10FD1000B4FBF0F100FB1144B5FBF0F1B5FBF0F2E0
:10FD200000FB12550846FEF76BFE2846FEF799FFCA
:10FD3000FFF7B3FE3846FFF7C7F82046FFF7F7F99D
:10FD4000FFF7B6FE4046FFF725FB3046BDE8F04121
:10FD500053E42DE9F04116460C460546FFF7B3FE85
:10FD60000A20B6FBF0F8B6FBF0F100FB1166B4FB1D
:10FD7000F0F7B4FBF0F100FB1144B5FBF0F1B5FB7B
:10FD8000F0F200FB12550846FEF7D6FB2846FEF7B8
:10FD900004FD1020FEF734FE3846FEF762FF2046D1
:10FDA000FFF792F81020FFF7C2F94046FFF7F2FA8A
:10FDB0003046BDE8F04120E4010900F00F0001EBFE
:10FDC000810100EB4100C0B2704700284FF01501DF
:10FDD0004FF0010001D0FEF732BBFEF73CBB4149BA
:10FDE0000870704738B540493E4B002009680091C3
:10FDF0001978002921D0012902D0022900D101203F
:10FE000099780025884201D098705D7099786C4689
:10FE10001DF811204AB1587804EB4101401CC0B2D2
:10FE200058704978814204D20DE004EB41004078DB
:10FE300020B115210120FEF702FB38BD152101205C
:10FE4000FEF709FB38BD8242F8D25D7038BD10B5AF
:10FE5000FEF73CFAFEF759FBBDE81040FEF707BB82
:10FE60001CB54FF48074684600F03FFAFFF732FF8C
:10FE70009DF80000FFF7A0FF02469DF80100FFF784
:10FE80009BFF03469DF80200FFF796FF1946FFF718
:10FE90002FFF20460CF06DF89DF80400FFF78CFF53
:10FEA00002469DF80500FFF787FF03469DF8060010
:10FEB000FFF782FF1946FFF74CFF20460CF059F878
:10FEC000D1E7000054686973206973207468652065
:10FED0004C43442066697273742073637265656E67
:10FEE000210D0A0010000020FC71050810B5012149
:10FEF00064201BF0B7FA1BF099FA401C29D00021AE
:10FF000010201BF0AFFA1BF091FA002180201BF0AB
:10FF1000A9FA1BF08BFA1BF081FAFEA046F058FC00
:10FF2000012164201BF09EFA1BF080FA00210F20B3
:10FF30001BF098FA1BF07AFA002184201BF092FA49
:10FF40001BF074FA1BF06AFAF3A046F041FC0120A2
:10FF500010BD1BF063FA002010BD10B50121642014
:10FF60001BF080FA1BF062FA18B11BF057FA002060
:10FF700010BDEAA046F02CFC00210F201BF072FA05
:10FF80001BF054FA002108461BF06CFA1BF04EFAE5
:10FF9000002108461BF066FA1BF048FA1BF03EFAF7
:10FFA000012010BD10B50446012164201BF05AFA4F
:10FFB0001BF03CFA18B11BF031FA002010BD0021F3
:10FFC00008461BF04FFA1BF031FA207800211BF095
:10FFD00049FA1BF02BFA607800211BF043FA1BF062
:10FFE00025FAA078002140F080001BF03BFA1BF0BE
:10FFF0001DFAE07800211BF035FA1BF017FA207982
:020000040801F1
:1000000000211BF02FFA1BF011FA607900211BF080
:1000100029FA1BF00BFAA07900211BF023FA1BF040
:1000200005FA1BF0FBF9012010BD70B505462C2424
:10003000FFF75CFF012164201BF014FA1BF0F6F9B6
:1000400018B11BF0EBF9002070BD002120461BF019
:1000500009FA1BF0EBF9002128461BF003FA1BF00C
:10006000E5F91BF0DBF9FFF778FF012070BD10B553
:100070000446012164201BF0F5F91BF0D7F918B1F3
:100080001BF0CCF9002010BD002108461BF0EAF956
:100090001BF0CCF9012165201BF0E4F91BF0C6F937
:1000A000002101201BF0EBF92070002101201BF042
:1000B000E6F96070002101201BF0E1F900F07F00FB
:1000C000A070002101201BF0DAF9E070002101206E
:1000D0001BF0D5F92071002101201BF0D0F96071CF
:1000E000012100201BF0CBF9A071012010BD10B53B
:1000F0002C24012164201BF0B5F91BF097F918B1ED
:100100001BF08CF9002010BD002120461BF0AAF93D
:100110001BF08CF9012165201BF0A4F91BF086F976
:100120000121BDE8104000201BF0A9B92DE9F041E4
:100130001D4614460F460646642801D1FFF7D6FE39
:10014000012130461BF08EF91BF070F930B100210F
:1001500038461BF087F91BF069F909E01BF05EF9DE
:100160000020BDE8F08115F8010B00211BF07AF9A1
:10017000641EE4B2F7D21BF051F9642E01D1FFF7EF
:10018000ECFE0120EDE72DE9F0410F461C46154637
:10019000064601211BF066F91BF048F968B1002101
:1001A00038461BF05FF91BF041F9761CF0B20121D3
:1001B0001BF058F91BF03AF909E01BF02FF9002069
:1001C000CFE7002101201BF05AF904F8010B6D1E46
:1001D00015F0FF05F5D1012100201BF050F920702A
:1001E0000120BEE70EB5F0218DF808104178B42249
:1001F00042EA81118DF80010017802AB09018DF8F7
:10020000011000218DF8021001798DF8031081880A
:100210000122090A8DF8041040681021000C8DF8A5
:1002200005006420FFF782FF6B4606221021642040
:10023000FFF77CFF0EBD0EB50A788DF800204A78D6
:100240008DF801208A788DF8022000228DF8032095
:100250000A798DF804204A798DF8052089798DF87E
:1002600006108DF80700FF208DF8080092208DF809
:1002700009006B460A2207216420FFF757FF0EBDD5
:1002800008B5A1218DF800108DF801006B460222FF
:1002900010216420FFF74AFF08BD08B58021814383
:1002A0008DF800106B46012210216420FFF73EFFFD
:1002B00008BD1CB581798DF8001041798DF80110C9
:1002C00001798DF8021081788DF8031041788DF84E
:1002D000041001788DF80510C0788DF8060007220B
:1002E0006946002000F0BBF91CBD1CB5044607227E
:1002F0006946002000F0A2F99DF80000A0719DF869
:10030000010060719DF8020020719DF80300A0704B
:1003100006E0000031313100323232003333330035
:100320009DF8040060709DF8050020709DF806009F
:10033000E0701CBD1FB55524FFF7D9FE552812D01B
:100340002EA046F045FA2046FFF76FFEFFF7CFFEDE
:10035000552806D037A046F03BFA3E48FFF722FE6C
:1003600007E03DA0F7E7FFF7C2FE014642A046F0D6
:100370002FFA3848C01DFFF77AFE4CA046F028FA45
:10038000344CE41DA078E378227861788DE80F0082
:1003900023796279A17949A046F01AFAE51DC820AF
:1003A0000BF0E7FD2B48C01DFFF761FE3FA046F0B4
:1003B0000FFAA078E378227861788DE80F0023792E
:1003C0006279A17949A046F003FA2248C01DFFF7DF
:1003D00070FF20480E30FFF788FF50A046F0F8F974
:1003E000A878EB782A7869788DE80F002B796A79FC
:1003F000A97932A046F0ECF9D1E70000546869739E
:100400002052544320697320667269737420757397
:10041000656421204D4355206973207772697469A2
:100420006E6720666C6167206E6F772E2E2E0D0A28
:100430000000000052544320666C616720776173AE
:10044000207772697465642077726F6E67210D0A78
:10045000000000001300002052544320666C6167C6
:10046000207761732077726974656420636F72729C
:10047000656374210D0A0000546869732052544367
:10048000206973206E6F74206672697374207573AF
:10049000656421205468652052544320666C61676E
:1004A0002069733A2532580D0A000000777269748A
:1004B000652074696D653A0D0A00000025303258D8
:1004C0002D253032582D25303258202025303258F5
:1004D0003A253032583A2530325820207765656BFE
:1004E0003A253032580D0A0D0A00000025303258E6
:1004F0002D253032582D25303258202025303258C5
:100500003A253032583A25303258207765656B3AB3
:10051000253032580D0A0D0A000000007265616432
:100520002074696D653A000010B504460121A020D1
:100530001AF098FF1AF07AFF200A00211AF092FFB1
:100540001AF074FFE0B200211AF08CFF1AF06EFF6F
:100550000121A1201AF086FF1AF068FF0121BDE8F1
:10056000104000201AF08BBF70B50D4604460121E3
:10057000A0201AF077FF1AF059FF200A00211AF084
:1005800071FF1AF053FFE0B200211AF06BFF1AF06E
:100590004DFF002128461AF065FF1AF047FF1AF0B8
:1005A0003DFFBDE870400A200BF0E3BC2DE9F041AF
:1005B00016460D460746002409E0E00025FA00F043
:1005C000C1B2381980B2FFF7CFFF641CE4B2B44265
:1005D000F3D3BDE8F0812DE9F0410D46014600203E
:1005E00004464E1908E00702301B401E80B2FFF798
:1005F0009BFF641C3844E4B2AC42F4D3E9E770B525
:100600004FF6FF7555262846FFF78EFF04465528FE
:1006100001D0012100E0002123A046F0D9F8552C9B
:100620000AD031462846FFF79FFF2846FFF77CFF98
:10063000552801D0012070BD002070BD70B5154651
:100640000E46044608E02046641CA4B2FFF76CFF87
:100650006D1E06F8010BADB2002DF4D170BD70B562
:1006600014460D46064606E029783046FFF77CFF23
:10067000761CB6B26D1C641EA4B2F5D270BD10B566
:100680001D201DF0EDFA1E201DF004FB10481AF08D
:10069000A3FEFFF7B4FF012801D00EA000E014A0D4
:1006A000BDE8104046F094B84154323443585820C5
:1006B0006973206669727374206F72206E6F206692
:1006C0006972737420696E69743A25640A000000C7
:1006D000400D03000A415432344358582063686582
:1006E000636B2073756363657373212E2E2E0A006E
:1006F0000A4154323443585820636865636B20665E
:1007000061696C642E2E2E0A0000000010B50022D4
:1007100011461A201AF090F90021BDE810401A2065
:100720001AF09CB801461A201AF098B81A201BF04B
:100730001DB910B5FFF7FAFF012803D00120BDE86D
:100740001040EFE70020FAE72DE9F047DFF8F481E9
:1007500000242746B8F80000D8F8045026464FF089
:10076000010970B94FF48061284645F0BBF80122B9
:100770002946104618F0F9FE002802DD2878FE28E8
:1007800004D0B8F80000012802D00FE0A8F80090CB
:1007900047464A46691C012018F0E7FE002802DDA2
:1007A000398808443880687800F00F07B8F90000ED
:1007B000022842DB4FF00009022F1FD0012F3CD14D
:1007C00041190122104618F0D0FE002804DDB8F8C7
:1007D00000201044A8F80000A8788700B8F90000AD
:1007E0007A1C4119012018F0C0FE002804DDB8F879
:1007F00000201044A8F80000F81C24E0411902224F
:10080000012018F0B2FE002804DDB8F800100844FA
:10081000A8F80000285D641C3044C6B2032CF9DB44
:10082000F0433330E978C0B2814201D146A000E004
:100830004BA045F0CDFFA8F80090BDE8F087295DFA
:10084000641C3144CEB28442F9DBF043B8F9003085
:1008500033306A1EC1B2985C444688420BD1042FE3
:1008600009D8444E002006EB000C2F5C401C8CF88D
:1008700010700828F7DB985C884201D132A000E0B4
:1008800037A045F0A5FFA4F80090D6E710B5FFF714
:100890005BFF10BD7CB51B201DF0C2F81C201DF0B5
:1008A000B4F84FF496542146012018F0E8FF0121D6
:1008B000084618F0AEFF012269461A2022F0CEFD4C
:1008C0000098A04205D0012269461A20009422F027
:1008D00078FC2949012018F02AFE1A4C00204FF418
:1008E000806520606060A06028461DF0B2FC6060FA
:1008F00010B1294644F0F6FF28461DF0AAFCA0607E
:10090000002802D0294644F0EDFF7CBDFFF7C2FF6E
:1009100001200BF02EFB01F024F807E017A045F0B2
:1009200057FF01F01EF832200BF023FBDC2000F013
:1009300092FF0028F2D164200BF01BFB00F044FF73
:10094000C820F9E7AC5C0020436865636B206973DD
:1009500020636F72726563742121210D0A0000000B
:10096000436865636B2069732077726F6E6721211E
:10097000210D0A00B86D00208D08010843616C69E3
:1009800062726174696E672E2E2E2E2E2E0000006C
:1009900088B01020F44E02AF0690F46814B12069BC
:1009A000012803D032200BF0E4FAF6E740F20141CF
:1009B000A06844F097FF06A8CDE9007000234FF42B
:1009C0008062A168606910F08CF80546C1B2A06829
:1009D00000F055FD002D26DD206A28442062381DD8
:1009E00015F081FD0146206A0090BDF80A002B46F3
:1009F00042BADEA045F0ECFEE84DE949E0682A780D
:100A000044F048FF287860620398A061BDF80A00AE
:100A1000E0610022062170680BF09FF82978E04819
:100A200044F060FFB9E7DFA045F0D2FE60690EF048
:100A3000B5FEDFA045F0CCFE4FF0FF306061F168FD
:100A4000002002460861052170680BF086F8A4E7D3
:100A50007FB502211122084610F067FDC24D002427
:100A6000E9684861401C21D0009402208DF8010003
:100A70004EF60300ADF80200019402940394496914
:100A8000CFA045F0A5FE4FF47A71D1A045F0A0FEAD
:100A9000E8681022694640690EF031FC401C07D01E
:100AA000E96801200861002004B070BDCDA000E01D
:100AB000CFA045F08DFEE8684FF0FF364069002872
:100AC00004DB0EF06BFEE968C1E904460022052153
:100AD00068680BF042F83046E6E72DE9F041A24C99
:100AE000E06808BB28201DF0B4FB4FF0FF37E06042
:100AF00060B3282144F0F6FE40F2014630461DF076
:100B0000A8FBE1680025886088B1314644F0EAFE20
:100B100030461DF09EFBE168C86040B1314644F0AC
:100B2000E1FEE068C0E90457BDE8F04190E7E06805
:100B300060B1C06808B11DF06EFBE068806808B164
:100B40001DF069FBE0681DF066FBE5603846BDE816
:100B5000F08110B5012810D0022810D0824C032853
:100B600012D0042816D1A5A045F032FE00220121A2
:100B70006068BDE810400AF0F0BFA5A000E0ABA09F
:100B8000BDE8104045F024BEAFA045F021FE002294
:100B90000221EDE710BD88B00024B24816F04DFEEA
:100BA000714E002500231A4606A970680BF01BF849
:100BB000ADA0069945F00CFE06980728F2D2DFE8B2
:100BC00000F004051A2904583100EBE714B10024A1
:100BD00003F062F80020FFF702F90120FFF7F5F8B3
:100BE00012F07BF8C1780091837842780178A1A057
:100BF00045F0EEFD46E00020FFF7E7F8F0684069B9
:100C00000028CFDB0EF0CAFDF0684FF0FF31C0E9DD
:100C10000451C7E7012002F015FF01242046FFF729
:100C2000DEF8BFE7F068416A0029BBD002950221D7
:100C30000395049505958DF8091081690391818BC1
:100C4000ADF80A10102202A9CDE90012426AC1686B
:100C50004069002310F04FFA0028A3DBF1684A6ACC
:100C6000101A48629ED00022062170680AF075FFB3
:100C700098E712F032F8007D002893D04FF4FA7014
:100C80000BF077F9FFF729FF8CE710B50122114629
:100C9000002019F0D1FE00201AF068FE324C60707E
:100CA000217870B1814219D0A0680A2804D20022AC
:100CB000042160680AF051FF0020A06001206070EC
:100CC00000E009B1207009E0A068401CA0600A287B
:100CD00004D10022032160680AF03FFFBDE8104004
:100CE000FFF780B830B587B0002404A920460594EA
:100CF0002FF03CFC9DF81000012528B98DF810500C
:100D000004A901202FF032FCCDE900543223002247
:100D10005D4905A80BF043F805980BF088F81248D8
:100D20000421001D0AF0F9FE4FF48051574A322089
:100D3000CDE90021CDE902040023554A19461846A1
:100D40000AF06AFA514A3320C8324FF480610394A2
:100D50000092CDE90110044800214E4AC3680846BC
:100D60000AF05AFA07B030BD2800002072637620DE
:100D700066726F6D20257320203A20706F72742088
:100D80003A202564206C656E203D20256420746F18
:100D900074616C203A2025640A00000038000020AD
:100DA000806D0020726376206572720A0000000078
:100DB000636C6F7365736F636B65740A000000008A
:100DC0000A736F636B6574206E756D3D25640A0050
:100DD0006C6F63616C20706F7274203D2025640A13
:100DE00000000000736F636B6574206572720A0007
:100DF00062696E64206572720A0000004E455449B3
:100E0000465F49505F4E45545F55500D0A00000043
:100E10004E455449465F574946495F4A4F494E5FE0
:100E2000535543434553530D0A0000004E45544962
:100E3000465F574946495F4A4F494E5F4641494CD4
:100E400045440D0A000000004E455449465F57498D
:100E500046495F444953434F4E4E45435445440D24
:100E60000A000000530B01086D7367203D202578B0
:100E70000D0A00006970203D2025642E25642E2572
:100E8000642E25640A0000008B0C0108B85C002069
:100E9000970B010891090108F0B5F94E00245A2773
:100EA000377055277770B0702546F17004E0105DFB
:100EB0003119641C0871E4B29C42F8D30020191D5A
:100EC00004E0325C401C2A44D5B2C0B28842F8D358
:100ED000E943F01833310171A5214171E9489B1DA7
:100EE0000370F0BD10B584788CB00B2C54D009DCA5
:100EF0000B2C6BD2DFE804F06A24292D31383C40FA
:100F000044484C00102C4FD00EDC0C2C14D00D2C6F
:100F10005ED00E2C44D00F2C58D1302269461120BF
:100F2000FFF78CFB30234CE0112C44D0FC2C4FD02D
:100F3000FD2C01D0FE2C49D10422694665200FE02A
:100F4000FDF7BBF98DF8000033E007226946002069
:100F500034E004226946412002E00422694645202B
:100F6000FFF76CFB04232CE0042269464920F7E7D5
:100F7000042269464D20F3E7042269465120EFE739
:100F8000042269465520EBE7042269465920E7E729
:100F9000042269465D20E3E7042269466120DFE719
:100FA000042269466D20DBE7012269467120FFF7C4
:100FB00045FB012305E0072269467220FFF73EFB4F
:100FC00007236A4601212046FFF766FF0CB010BDDB
:100FD000042269466920C3E7A94A5A231370AA2349
:100FE000537090700844001DD170C04333301071AD
:100FF000A520A44950710620087070477FB50021D4
:101000000091019185780446F02D73D00EDC4FF0ED
:101010000100122D6FD2DFE805F06E464F8E95A1CC
:10102000A8AFB6BDC4CBD2D9E0E4EBF6F92D62D0BF
:1010300009DCA5F1F10007285DD2DFE800F0F5F446
:10104000F35C5C5CF200FD2D74D015DCFA2D52D0FF
:10105000FB2D50D0FC2D4ED1E178B220FFF784FA61
:101060002179B320FFF780FAB220FFF75DFAE1782B
:10107000884270D1B320FCE1FE2D6DD0FF2D6CD0E5
:101080008148C54237D1E1789020FFF76DFA217988
:101090009120FFF769FA9020FFF746FAE17888423D
:1010A000E7D19120E5E1E078FDF7FAF805200AF0B4
:1010B00060FFFDF702F9A2E0E278592A02D98DF823
:1010C000081001E08DF808202279592A02D98DF8FC
:1010D000091001E08DF809206279232A02D98DF8E0
:1010E0000A1001E08DF80A20A279072A04D98DF8A8
:1010F0000B0003E078E176E18DF80B20E279312AEC
:1011000002D98DF80C0001E08DF80C20227A122A09
:1011100002D98DF80D0001E08DF80D20607A50287D
:1011200002D98DF80E1001E08DF80E0002A8FEF72E
:1011300039FF54E180E1042200214120FFF78FFABA
:1011400052A005E0042200214520FFF788FA56A0AE
:1011500045F03EFB43E190E174E17BE10422002194
:101160004920FFF77CFA57A0F2E7042200214D2026
:10117000FFF775FA59A0EBE7042200215120FFF791
:101180006EFA5DA0E4E7042200215520FFF767FA1C
:1011900060A0DDE7042200215920FFF760FA64A077
:1011A000D6E7042200215D20FFF759FA67A0CFE7B8
:1011B000042200216120FFF752FA6BA0C8E7042245
:1011C00000216520FFF74BFA6DA0C1E70422002142
:1011D0006920FFF744FA71A0BAE7042200216D20CC
:1011E00002E0302200214120FFF739FA72A0AFE778
:1011F000E1787120FFF7B8F9712028E103E0E17888
:1012000088423AD039E1E278592A02D98DF80010A3
:1012100001E08DF800202279592A06D98DF80110B5
:1012200005E0F9E0F2E0EBE0E4E08DF8012062791E
:10123000232A02D98DF8021001E08DF80220A2794C
:10124000072A02D98DF8030001E08DF80320E27926
:10125000312A02D98DF8040001E08DF80420227AA9
:10126000122A02D98DF8050001E08DF80520607A78
:10127000502803D98DF80610ACE0B0E0A8E00000DB
:10128000806D00203800002073B08CE441637469E5
:101290007665506F73697469766520636C656172F9
:1012A0006564210D0A0000004163746976654E652E
:1012B00067617469766520636C6561726564210D90
:1012C0000A000000416374697665546F74616C2094
:1012D000636C6561726564210D0A0000526561638B
:1012E00074697665506F73697469766520636C659F
:1012F00061726564210D0A005265616374697665E7
:101300004E6567617469766520636C6561726564BA
:10131000210D0A005265616374697665546F7461CA
:101320006C20636C6561726564210D0A0000000029
:10133000506F736974697665546F74616C20636C67
:101340006561726564210D0A000000004E656761E9
:1013500074697665546F74616C20636C6561726545
:1013600064210D0A00000000456E65726779546FB4
:1013700074616C20636C6561726564210D0A000004
:10138000496E7374616E7443757272656E74206316
:101390006C6561726564210D0A000000496E73740A
:1013A000616E74566F7461676520636C6561726508
:1013B00064210D0A00000000496E7374616E745060
:1013C0006F77657220636C6561726564210D0A0038
:1013D0008DF80600072269467220FFF740F90121C7
:1013E0002846FFF7F9FD7FBDE1789220FFF7BCF8B2
:1013F00092202CE0E1789320FFF7B6F8932026E0C6
:10140000E1789420FFF7B0F8942020E0E17895206F
:10141000FFF7AAF895201AE0E178A220FFF7A4F8D8
:101420002179A320FFF7A0F8A220FFF77DF8E1784B
:10143000884222D1A3201CE0E178B420FFF794F881
:10144000B42004E0E178B520FFF78EF8B520FFF76F
:101450006BF8D4E6E178B620FFF786F82179B7205B
:10146000FFF782F8B620FFF75FF8E178884204D1F1
:10147000B720FFF759F82179C2E60021B0E72DE93E
:10148000F04104465A20002260F307060D464FF053
:10149000A50810468B1E04E0215C401C1144CAB212
:1014A000C0B29842F8DBD0433330C7B2394620A0EF
:1014B00045F08EF92078F1B2884225D1601910F8F4
:1014C000012C424520D110F8020CB8421CD11DA0BD
:1014D00045F07EF921A045F07BF9002605E0A15DED
:1014E00016A045F075F9761CF6B2AE42F7D36078D7
:1014F000AA2802D12046FFF781FD6078552815D132
:101500002046BDE8F041EDE414A045F061F9002665
:1015100005E0A15D09A045F05BF9761CF6B2AE428C
:10152000F7D3BDE8F04111A045F052B9BDE8F08114
:10153000636865636B4F75742069733A25780D0A8B
:10154000000000007468697320646174612069732D
:1015500020636F7272656374210A00007468697396
:1015600020646174612069733A00000074686973D3
:10157000206461746120697320756E636F72726597
:101580006374210A000000002DE9F041FF4EF022B3
:1015900002EA10144FF0FE0886F80080A21CC5B2C3
:1015A0007270B570F170080A3071080C7071080E15
:1015B000B0710027F7713846F179325C401C114454
:1015C000C0B2F1710728F7D3C8B2C0433330F0710D
:1015D0000822EE49012018F0F1F814200AF0C9FCA5
:1015E00086F80880641C7472B5720120F07237733B
:1015F0007773B773F77300203218F17B127A401CAF
:101600001144C0B2F1730728F6D3C8B2C0433330D7
:10161000DE49F07308220831012018F0CFF81420B9
:101620000AF0A7FCD94A002103203418135C247C5B
:10163000A34201D0491CC9B2401CC0B20728F4D350
:1016400021B1D3A0BDE8F04145F0C2B8D6A0F9E77A
:1016500010B588B01C2269461020FEF7EFFF9DF8F8
:1016600003009DF800109DF8022000EB01609DF83A
:101670000110C64C090401EB022118340144216019
:101680009DF807009DF804209DF8063000EB0260ED
:101690009DF80520120402EB0322104460609DF8BF
:1016A0000B009DF808209DF80A3000EB02609DF8C1
:1016B0000920120402EB03221044A0609DF80F00E1
:1016C0009DF80C209DF80E3000EB02609DF80D2077
:1016D000120402EB03221044E0609DF813009DF811
:1016E00010209DF8123000EB02609DF811201204CA
:1016F00002EB0322104420619DF817009DF814208E
:101700009DF8163000EB02609DF81520120402EBE4
:101710000322104460619DF81B009DF818209DF87D
:101720001A3000EB02609DF81920120402EB03222C
:101730001044A0614FF49670FFF726FF4FF49970A4
:101740006168FFF721FF4FF49770A168FFF71CFF56
:1017500040F22F10E168FFF717FF40F28110216976
:10176000FFF712FF4FF4C1706169FFF70DFF08B07A
:1017700010BD864A10B5FE231372F02303EA10133E
:101780005B1C5372002190720120D072117351734F
:1017900091730846D1735318C0B21B7A491C184480
:1017A000C9B2D0730729F6D3C0B2C0433330D07367
:1017B000764908220831012018F000F814200AF0B8
:1017C000D8FB7248103010BD10B540F21B10FFF767
:1017D000D0FFC178827901EB02614279007912046D
:1017E00002EB002008447749BDE81040B0FBF1F15E
:1017F00075A044F0EDBF10B54FF48E70FFF7B9FF40
:10180000C178827901EB026142790079120402EB1E
:10181000002008444DF62021B0FBF1F1BDE8104056
:101820006DA044F0D5BF10B540F21910FFF7A1FF2D
:10183000C178827901EB026142790079120402EBEE
:10184000002008444DF62021B0FBF1F1BDE8104026
:1018500065A044F0BDBFF8B505460020009040F2F9
:101860001B10FFF786FFC178827901EB0261427994
:101870000079120402EB002008445F494D432E1A00
:10188000424831461830406884195CA044F0A0FFFB
:10189000200E8DF80000200C8DF80100200A8DF834
:1018A00002008DF80340042269461420FEF7D7FE9B
:1018B000B6FBF5F044F085FB044644F0C4FB024659
:1018C0000B4652A044F084FF24F00040544944F0F9
:1018D000E5FB01D80020F8BD0120F8BDF8B50546AC
:1018E000002000904FF48E70FFF743FFC17882799B
:1018F00001EB026142790079120402EB00200844F6
:1019000048494D432E1A2148314618300068841941
:101910003AA044F05DFF200E8DF80000200C8DF8F9
:101920000100200A8DF802008DF803400422694668
:101930001020FEF794FEB6FBF5F044F042FB04469F
:1019400044F081FB02460B4630A044F041FF24F0F6
:101950000040334944F0A2FB01D80020F8BD01202B
:10196000F8BD10B5304940F28510FFF70DFE4FF07D
:1019700040514FF4C370FFF707FE4FF4802140F24F
:101980008710FFF701FE294952E00000B86D0020E2
:101990005772697465526567427566206661696C45
:1019A00065642121210D0A005772697465526567CB
:1019B00042756620737563636573736564212121C5
:1019C0000D0A0000B9310300566F6C746167652021
:1019D00069733A25780D0A0043757272656E74203A
:1019E00069733A25780D0A00456E6572677920693A
:1019F000733A25780D0A00003CF11F0065727220D1
:101A000069733A307825780D0A00000070726563BA
:101A10006973696F6E2069733A256630330D0A0069
:101A20000AD7233C000D5403401720FF00000B0A87
:101A30004FF4C270FFF7A8FD40F283140949204615
:101A4000FFF7A2FD0849E01EFFF79EFD074940F29F
:101A50002510FFF799FDFFF7FBFD2046BDE810407C
:101A6000034991E58000000C0400FB01A72B1D81B8
:101A7000800000EC02780B789A4213D142784B78C0
:101A80009A420FD182788B789A420BD1C278CB7868
:101A90009A4207D102790B799A4203D14079497968
:101AA000884201D0012070470020704730B4F94CC3
:101AB0002078002822D000210B4601EB410004EBE6
:101AC000C00010F8242F022A09D142683AB1521EF0
:101AD000426004D1C360038200F10C020370491C10
:101AE000C9B20829E9D32078002807D0002330BCE8
:101AF000E94A4FF47A7118460CF0B5BA30BC704719
:101B00002DE9FF4F4FF0000A81B09B465646D04664
:101B1000D14655465746CDF800A0DE4807EB4701B1
:101B200000EBC10414F8240FD8B1062204F10C0014
:101B3000019943F035FFE8B3A1680398814201D1D0
:101B4000012000907F1CFFB2082FE6D302980021ED
:101B5000012832D0032843D0042878D007287DD12B
:101B600075E0B9F1000F07D1062204F10C000199CC
:101B700043F016FF00B9A14626B9A1680398814237
:101B800000D12646BAF1000F07D10622C3A104F105
:101B90000C0043F005FF00B9A246B8F1000FD1D107
:101BA0000622BEA104F10C0043F0FAFE0028C9D0C1
:101BB000A046C7E7FFE72546C4E735B1297016B14F
:101BC000E960298202E028463BE00EB1304638E069
:101BD000B9F1000035D1BAF1000032D140462EE013
:101BE000009815B301280ED0BEB12878032801D083
:101BF000E96029822970BBF1000FE7D0A548816810
:101C00005945E3D02AE02A780020032A01D0E96070
:101C10002982297005B0BDE8F08FBBF1000FD2D04A
:101C20009C4881685945CED018E0012816D0BBF1F8
:101C3000000F03D09748816859450FD130460028DE
:101C4000E8D001990A68C26089880182E2E72DB173
:101C50002878032801D0E960298229700020D9E77B
:101C60002DE9FF5F1546824600224FF40976314682
:101C700010460BF07CF85FEA00097CD0854C3146B9
:101C8000E434204643F02EFE0220207001276770C6
:101C90004FF0060B84F802B028460AF061FF60603E
:101CA000DAF8080020610020606101980168E161B4
:101CB000808820847B480AF053FF04F1F005C4F8C3
:101CC000EC00352028706F700520A8703320E87074
:101CD00004262E714FF4E1500AF042FFC5F80500CA
:101CE0003620DFF8B0816872AE72D8F8080045F887
:101CF0000B0F21462F716E71D8F81000C5F8060041
:101D00000320A872EE72D8F81400E86085F810B0CD
:101D100008206874D8F8180045F8120FD8F81C008D
:101D20006860FF2028724FF48B752A4648460FF0F2
:101D300059FE2946484611F07EFC0398C00B04D09A
:101D40004423594AD8F804000CE014F066F80AF16C
:101D5000080102230C46019A13F0EEF9D8F80400AA
:101D60004423224649460FF02EF804B04846BDE809
:101D7000F05F0AF0E4BDBDE8FF9F2DE9FF5F9046EC
:101D8000824600224FF40976314610460AF0EFFFF2
:101D90005FEA0009EFD03F4D3146E4352C46284636
:101DA00043F0A0FD02262670012767704FF0060B56
:101DB00084F802B040460AF0D3FE6060DAF808000A
:101DC00020610020606101980168E16180882084C1
:101DD00034480AF0C5FE04F1F005C4F8EC003520E3
:101DE00028706F70AE703320E87004262E714FF4A7
:101DF000E1500AF0B5FEC5F805003620DFF8948002
:101E00006872AE72D8F8080045F80B0F21462F71A2
:101E10006E71D8F81000C5F806000320A872EE72A3
:101E2000D8F81400E86085F810B008206874D8F875
:101E3000180045F8120FD8F81C006860FF202872BF
:101E40004FF48B752A4648460FF0CCFD294648468C
:101E500011F0F1FB0398C00B04D04423124AD8F8C8
:101E600004000CE013F0D9FF0AF1080102230C462C
:101E7000019A13F061F9D8F8040044232246494638
:101E80000EF0A1FF04B04846BDE8F05F0AF057BD70
:101E900071E70000EC6D0020AD1A010800000000A1
:101EA0000000000063538263607205082DE9F04171
:101EB0000024FF4D8046264604EB440005EBC0009D
:101EC00010F8241F41B90C3006224146074643F062
:101ED00067FD08B93E60BE80641CE4B2082CEBD3F9
:101EE000BDE8F0812DE9F0410025F14E80462C46F9
:101EF00004EB440006EBC00707F1300140462437ED
:101F0000FFF7B8FD28B1641CE4B2082CF0D32846D2
:101F1000E6E707F10805FAE7E54A18B1012800D11C
:101F2000D1617047916170472DE9F04FE04C4FF45B
:101F30000975E43485B093462946204643F0D2FC27
:101F400000232A46214658460CF022F9002879D071
:101F50002078012876D1D4F8EC000AF001FED549AA
:101F600088426FD1607801286CD129F04DFF04F1CF
:101F70001C0106220D4643F013FD002862D04FF0ED
:101F80000009AA46C8464020CDF800901CF061F92F
:101F9000070057D0402143F0A5FC4022394668464F
:101FA0002EF0BFFA3E46002506E031465046FFF7C8
:101FB00061FDB8B16D1CB61D00988542F5D3384659
:101FC0001CF029F9B8F1000F3CD0FF25CDF8109096
:101FD00004AF03AE04F1F00004F509730021CDF85D
:101FE0000C900DE04FF00108E9E77AB390F801C0DA
:101FF000352A2ED0322A31D0362A35D0801C604482
:102000000278FF2A01D09842EFD3C8071AD0082DD2
:1020100018D060680AF0A4FD074660890AF070FCD9
:102020000646D4E90701CDE90101DDE9033229467D
:1020300001A8FFF765FDE8B101AB3A4629460096D5
:1020400000F040F958460AF07AFCE3E5FFE7401C4F
:10205000D6E710F8025F41F00101D0E750F8022FF7
:102060003A6041F00201CAE750F8022F326041F0B5
:102070000401C4E7072DE5D0042DE3D0394601A8BB
:1020800000F0C9F8DEE72DE9F041894E07463078C7
:10209000B0B1C7B1002404EB440006EBC00515F84D
:1020A000240F30B10622394605F10C0043F078FCCC
:1020B00060B1641CE4B2082CEDD36FF004000FE7AC
:1020C0006FF005000CE76FF0010009E7287803289E
:1020D00002D06FF0030003E70020287000E72DE92D
:1020E000F05F054690F83B00C0071AD0E421704825
:1020F00043F0F8FB68680AF033FD0446A8680AF06C
:102100002FFD0646F14324EA0600401CB0FBF1F225
:10211000884601FB120141B1B0FBF8F208FB120046
:1021200004E04FF0FF30BDE8F09F01203440204331
:102130000AF016FD0146281D00D068685C4AC2E915
:10214000020115F1080000D0A8681061281D0028C0
:1021500000D06868506102D14FF0000000E068686C
:1021600090614FF4E1504FF00004A346824691463F
:10217000106204EB440109EBC10707F824BFD9F84A
:102180000C000AF0EDFC0146B0432044B0FBF8F32C
:1021900008FB130222B1B0FBF8F308FB130000E0C8
:1021A0000120314008430AF0DBFC641CC7F814A08E
:1021B000B860082CDDD30FF08CF84C46C9F8040049
:1021C000A0B143223C490CF0ACFF2A46AFF2A72154
:1021D00060680FF07BF80023384A4FF47A71184694
:1021E0000BF041FF0120207000209CE76FF00200FF
:1021F00099E710B52E4C0020024620702F4913F0AD
:1022000010FD606808B10CF0F2FBBDE81040E4215D
:10221000274843F067BB2DE9F047884681460022F6
:102220004FF40976314610460AF0A1FD05003CD076
:102230001F483146E430044643F054FB022020702E
:10224000012666700627A77040460AF089FCDFF871
:1022500060806060D8F808006061D9F80020E26111
:10226000B9F80410218413480AF07AFCC4F8EC0091
:1022700004F1F0003521017046708770FF21C170B4
:10228000F422214628460FF0ADFBF421284611F038
:10229000D2F944230A4A2946D8F804000EF093FDE7
:1022A0002846BDE8F0470AF04ABBBDE8F0870000C9
:1022B000EC6D0020635382635C720508AD1A01085F
:1022C000607205082DE9F04104460078069B03265C
:1022D0004FF4E15704F10C0530B1012808D0022871
:1022E00012D003280CD10FE001290AD003290BD00A
:1022F00029462046FFF741FD0A2060600220207039
:10230000EEE501202070F3E729462046FFF7A8FC00
:10231000676126702846BDE8F041C7E52DE9F84F12
:1023200082461F469046894618460A9D43F019FB8F
:10233000243020F003001BF08CFF040063D02580C4
:102340008020A070002504F10C06E57001200AF041
:10235000D7FAA08001200AF0D3FAE08025816581B8
:10236000384643F0FEFA421C3946304643F092FAB2
:10237000384643F0F6FA06443846761C43F0F1FA44
:1023800000F11105D8F8000030604CF20C000AF0A2
:10239000B7FAADF80000B0800120AD1C0AF0B0FA29
:1023A00060F30F0701200AF0ABFA60F31F474FF408
:1023B00061600AF0D5FBC6F80670C6F80A00042072
:1023C00008350AF09DFA9A4FADF80000F081786A5E
:1023D0003061AD1D0022A9B210460AF0C8FC06000B
:1023E0000CD0AAB221460FF0FDFA4B4652463146B8
:1023F00038680EF0E8FC30460AF0A1FA2046BDE845
:10240000F84F1BF008BFBDE8F88F2DE9FC4799464F
:1024100090461089DDF828A01BF01BFF06005ED057
:102420004046B8F80820002331460BF0B1FEB078E2
:10243000C00851D106F10C07384643F092FA3844EF
:10244000D0F80100019001200AF05AFABDF80610F8
:10245000884206D001200AF053FABDF804108842E1
:102460003AD1734D3C462D1D384643F07AFA401E52
:10247000202819D8032114F8010BB1EB901F0ED0BE
:1024800007E02A7823789A420ED1401E641CC0B21D
:102490006D1C0028F5D120786D1C0028EBD115F8B3
:1024A000010C00B1012070B113F0B7FC90F83B00B3
:1024B000C00710D1308800903B4601AA51464846DB
:1024C00000F065F807E0308800903B4601AA5146CD
:1024D0004846FFF723FF16B130461BF09CFE4046EE
:1024E0000AF02DFABDE8FC8770B5040003D043F074
:1024F00038FA202801D9022070BD4D4D2021281D19
:1025000043F0F0F9204643F02CFA02462146281DFC
:1025100043F0C0F9002070BD70B504000D4604D032
:10252000084643F01EFA202801D9022070BD94F815
:102530003B00C00720D028213D4843F0D3F928466E
:1025400043F00FFA29463A4D0246281D43F0A2F9FE
:10255000201D00D0606868620EF0BBFE286068B184
:10256000352234490CF0DDFD2246AFF261112868B6
:102570000EF0ACFE002070BD012070BD032070BDC8
:102580002B480068002801D00CF031BA70472DE9C3
:10259000F04782469846164689461846089F43F0FB
:1025A000E0F9143020F003001BF053FE04003CD08F
:1025B00027808020A0700320E07004F10C0501202A
:1025C0000AF09EF9A0800020E080208160814046D2
:1025D00043F0C7F9421C4146284643F05BF94046A8
:1025E00043F0BFF94719404643F0BBF9316800F1A9
:1025F0001105C7F801100022A9B210460AF0B7FB76
:1026000006000DD0AAB221460FF0ECF908484B465F
:102610005246006831460EF0D6FB30460AF08FF97C
:102620002046BDE8F0471BF0F6BDBDE8F08700008E
:10263000F47000205C720508FE490862704710B50E
:102640000C4628B1FC4A117811B1114643F0B5F996
:10265000002C0BD0F84821300078002806D0F6492D
:102660002046BDE81040213143F0A7B910BD002835
:1026700008D0F14962310978002903D0EE4962316E
:1026800043F09BB9704710B510F027FB20B1007DD7
:10269000012801D12DF056FF10F01FFB08B1007D7D
:1026A00018B10A2009F065FCF6E7BDE810403220B9
:1026B00009F05FBCDF4800220621406A09F04DBAEC
:1026C000DC4800221146406A09F047BAD948002286
:1026D0000521406A09F041BAD64800220221406A29
:1026E00009F03BBA0146D3480429406A09D00629BB
:1026F00004D0082909D10022092104E000220A217E
:1027000001E00022072109F028BA7047C948007883
:10271000704770B596B05021684643F0E3F8002446
:102720008DF8004001208DF80100801E01904FF6C9
:10273000FE70ADF80800684610F07CFA0546149467
:1027400014A8159419F065FC322009F012FCB94E5A
:10275000E8B2062214A910F0F8FB307828B932202C
:1027600009F007FC641C142CF2DBE8B210F04CFBFF
:1027700016B070BD2DE9F0410400AE494FF00005E0
:10278000AE488D642F468560456005603CD001F100
:102790006806884607E056F8250018B11BF03BFD97
:1027A00046F825706D1C98F80B008542F3DB88F81D
:1027B0000A70454688F80B70002C25D0DFF87C8223
:1027C000002608F1E00807E058F8260018B11BF0D1
:1027D00022FD48F82670761C687B8642F4DB2F7356
:1027E0003E466F73002C0FD00024954F07E057F83A
:1027F000240018B11BF00FFD47F82460641CE87B2F
:102800008442F4DBAE73EE73BDE8F08170B5894DA0
:102810000024EC7448B18948AC388462C462A86B67
:1028200018B14FF4807143F05DF8FF202872AC704E
:102830006C70EC7070BD70B57E4D287928B9286B2E
:1028400009F057FB686B09F054FBE86B002410B1EA
:102850001BF0E1FCEC63E86A30B97648EC710F22BA
:102860000E21703043F037F8AC71C5F85240A5F82E
:1028700056400120FFF7CAFFAC820120FFF77AFF24
:10288000A86B10B11BF0C7FCAC636C70AC70EC7043
:1028900000202CF0C3FE00202CF0DBFEBDE87040D1
:1028A00001F03DBB70B5634E0C460546336A0BB173
:1028B00000209847002001F0C5F8307910B9322087
:1028C00009F057FB74B1204643F04BF8C6B22846D6
:1028D00043F047F8C1B23346224628462DF0D5FCD6
:1028E000C0B270BD0020F1E72DE9F05F834651488A
:1028F0008A461F46417C1646002401B9477480462B
:102900004E4D407C50354FF00009B84209D110E0DF
:1029100055F8240018B11BF07EFC45F82490641C87
:10292000E4B298F811008442F2D388F8117088F864
:10293000109055F82600D0BB0AF101001BF089FC6D
:1029400045F8260098B35246594642F0A3FF55F881
:102950002620464602F80A9098F81000401CC0B2A3
:1029600088F81000B84236D1002409E055F8241048
:10297000087818B131480C3042F0BFFF641CE4B253
:10298000BC42F3D32C484121623042F0ABFF2B49CB
:102990000C31A1F5AB7043F010F8316A21B1012080
:1029A0008847002001F04EF800244F4609E015E06A
:1029B00055F8240018B11BF02EFC45F82470641C57
:1029C000E4B2707C8442F3D31C4841210C3042F0C5
:1029D00089FF377477740020BDE8F09F0120FBE782
:1029E0002DE9F05F834613488A461F46417B164611
:1029F000002401B947738046114D407B803D4FF064
:102A00000009B84209D110E055F8240018B11BF0B4
:102A100002FC45F82490641CE4B298F80D0084424E
:102A2000F2D388F80D7088F80C9055F82600D0BBCA
:102A300008E000003C0000201C710020C87200204B
:102A4000287400200AF101001BF003FC45F8260061
:102A500048B35246594642F01DFF55F826204646D7
:102A600002F80A9098F80C00401CC0B288F80C00DC
:102A7000B84237D1002408E055F82410087810B186
:102A8000F94842F03AFF641CE4B2BC42F4D3F64881
:102A900042F067FF402807D9F3494022A1F22710EE
:102AA00042F049FF05E01DE0EF49A1F2271042F096
:102AB00084FF0120F07000244F4608E055F8240000
:102AC00018B11BF0A8FB45F82470641CE4B2707BBD
:102AD0008442F3D34121E44842F004FF3773777313
:102AE000002079E7012077E72DE9F05F8346DF4892
:102AF0008A461D46C17B1646002401B9C57380462F
:102B0000C07BDB4F4FF00009A84209D110E057F815
:102B1000240018B11BF07FFB47F82490641CE4B23A
:102B200098F80F008442F2D388F80E9088F80F507E
:102B300057F82600B0BB012404EB5A001BF089FBB8
:102B400047F8260070B35246594642F0A3FE57F8A4
:102B50002620464602F80A9098F80E00401CC0B2A3
:102B600088F80E00A84238D17470002407E0BE48EF
:102B700057F82410413042F0C0FE641CE4B2AC426D
:102B8000F5D3BC484D4680F8009000F2891042F021
:102B9000E8FE202807D9B44920224131B54842F047
:102BA000CAFE05E01BE0B049B248413142F005FFE2
:102BB000002408E057F8240018B11BF02CFB47F85C
:102BC0002450641CE4B2F07B8442F3D3A648212154
:102BD000413042F087FEB573F5730020FCE601201A
:102BE000FAE62DE9F05F04460078DFF87C820609FA
:102BF00000F00F0000F1010B08F16408607858F84C
:102C000026100509E9404FF0010AC90702D04FF02C
:102C1000FF30E1E600F00F07E019B91C90F80290D0
:102C200020461BF0F1FF81451FD1904A012026B1BB
:102C3000012E12D0022E18D120E0D8F80010A840A2
:102C40000143C8F80010507878B95B462A463946E7
:102C5000A01CFFF749FF824607E0D8F80410A840FF
:102C60000143C8F80410D07808B15046B4E65B467A
:102C70002A463946A01CFFF7B3FEECE7D8F8082037
:102C8000A8400243C8F808205B462A463946A01CE3
:102C9000FFF72AFEDFE730B5017804460B094FF055
:102CA000FF30022B1CD801F00F026478521C21095E
:102CB000914215D26C4D643555F82330CB40DB077B
:102CC0000ED104F00F03042B0AD84C1C944201D0FF
:102CD000042B05D1012A02D909B1002B00D0002014
:102CE00030BD02780B789A4213D142784B789A42E1
:102CF0000FD182788B789A420BD1C278CB789A42E6
:102D000007D102790B799A4203D1407949798842F7
:102D100001D001207047002070471CB54FF0000221
:102D200004000092019212D0504869465230FFF7D9
:102D3000D8FF30B14D4821465230FFF7D2FF40B1A5
:102D400005E04A4A206842F8520FA088908000208F
:102D50001CBD01201CBD10B5444C206B08B109F00E
:102D6000C8F8606A0022BDE81040042108F0F5BEF2
:102D70002DE9FE4F0D460746002600F05EFF00904D
:102D8000384600F068FF01784278C37811408278B5
:102D90001A4011400279407911400140FF2961D168
:102DA0003888C0F3002400F08C00882800D1AD1EC4
:102DB000DFF8B8B09BF806000BF1160A4FF00009D7
:102DC0000AF10208F0B30098FFF7A7FF00287CD0B3
:102DD000BBF814105E46002944D08D4202D2481E32
:102DE0008542DCD101F10F0085423BD83888C0F321
:102DF000C02030B11D48FA8A603050F8240090425B
:102E0000EAD01A48FA8A603040F82420184AB07C88
:102E1000903A002879D0481E854277D1C4EBC4018E
:102E200018F804008D181AF804100F23425D8B4027
:102E30001A43091F425547460AF80410032807D3CE
:102E4000697800E018E001F00F01C91C88427DD2CA
:102E50008BF81290C5F80090A5F8049085F80690BC
:102E600007F804900AE10000647200203C00002092
:102E7000287400201C710020FE4CFE480838805D3C
:102E8000A8424AD10098FFF748FFE8B3A05D401C74
:102E9000C0B2A055082840D3F648042108385C4643
:102EA000805D401CABF814008BF8129088F80190FC
:102EB00088F800908AF801108AF80010ED4918315E
:102EC000C1F80490C1F8009000E090E08BF8059004
:102ED000FFF741FF3888C0F3402020B1D7F80A003F
:102EE000E064F88902E07868E0643889A4F850006A
:102EF0000125A570DF480A30C178437902798DE851
:102F00000E008378427802E007E00BE046E00178AB
:102F1000D9A043F05DFCA5716EE0761CF6B2042EDC
:102F2000ABD369E0A94201D17078C0B1481CA84276
:102F300001D1F078F8B1891CA94293D1202118F869
:102F40000430C4EBC4052A44995400E015E00AF8A3
:102F5000049008F8049001208BF812008EE018F815
:102F60000430C4EBC4052A4403F802900AF8049024
:102F700008F80490EFE71021E1E72846FFF731FE5B
:102F800086F81290C5F80090A5F8049085F8069090
:102F900007F8049004200AF804002DE0C4EBC400F4
:102FA000871818F804301AF80400691A8140DA5DAD
:102FB000001F0A4340B2DA550AF8040000281BDA61
:102FC00004200AF804005B1CD8B208F804000228A8
:102FD0000ED13846FFF75FFE50B186F81290C7F861
:102FE0000090A7F8049087F8069008F8049003E092
:102FF00018F80400072805D09BF80110584601294D
:1030000004D03BE03846FFF7ECFDE6E7C178012944
:1030100034D18178F9B14178E9B1A149A1A043F057
:10302000D7FB9448001DC178437902798DE80E00E2
:10303000837842780178A0A043F0CAFB9849A7A002
:10304000213143F0C5FB964A8A492132091D944833
:1030500000F018FD12E0407880B19148007868B126
:103060008F4990A043F0B4FB8D499CA0213143F0DF
:10307000AFFB8B498A482131FFF714FC0120BDE8E2
:10308000FE8F10B57B4C483C206B08B108F031FF37
:10309000606A0022BDE81040032108F05EBD2DE902
:1030A000FF5F00240746264600F0D5FD0546007860
:1030B00001287CD168780028FBD1A8785E28F8D157
:1030C000DFF8B081E878A8F1480820B9297998F8A4
:1030D00009008142EDD1384600F0AFFD009065480F
:1030E0004838806B002862D00098FFF716FEDFF8A2
:1030F00004B24FF0010A88B3E87895F804C06A7901
:10310000D0B1401EC0B2410900F01F045BF821306D
:10311000D846E340DB0742D1564B483B9B6B03F854
:1031200010C003EB4000427058F821200AFA04F066
:1031300002434BF8212032E04E494839487A844511
:103140002DD1087AFF2801D0824228D08E468242B3
:1031500023D0FF2821D0DEF838901CE01FE0610961
:1031600004F01F035BF821C02CFA03FC5FEACC7C5F
:103170000FD04FF0000C09EB440809F814C088F890
:1031800001C05BF821800AFA03FC28EA0C084BF81E
:103190002180641CE4B28442E1D38EF80820354CCF
:1031A000483CA17907F10A08B1B1009800E0A3E01A
:1031B000FFF7B3FD00280ED02879052806D86879D6
:1031C000617A884202D1E07C401CE074E07C0D28EA
:1031D00001D36079F0B398E0E87830B92879617A62
:1031E000884202D1E07C401CE074E07C012810D1D0
:1031F000204800990A30FFF774FD30B1009801684B
:10320000C4F852108088A4F8560000206071FFF7BF
:1032100038FFE07C03286FD384F806A03888C0F319
:10322000002109B13E1D03E0C0F3402000B1464635
:1032300026B13068E064B088A4F850000D480099C9
:103240000A30FFF74EFD38B10098016844F8521F6C
:10325000808800E055E0A08008F058FD054A01464E
:103260000A32907855791479D3788DE839005378FB
:10327000127842E0840000205B42726F6164436117
:1032800073745D675372634D61633A25783A2578AC
:103290003A25783A25783A25783A25780A000000C8
:1032A0001C7100205B42726F6164436173745D53F3
:1032B0005349443A25730A005B42726F616443616B
:1032C00073745D42535349443A25783A25783A2538
:1032D000783A25783A25783A25780A005B42726F69
:1032E0006164436173745D50415353574F52443A84
:1032F00025730A0044720020BFE0F7A043F068FA8B
:10330000BBE0FFF728FD84F805A0257A002DF7D053
:10331000FF2DF5D000205B46691C0AE0420900F051
:103320001F0C53F8222022FA0CF2D20704D0401CC2
:10333000C0B2B0EB510FF1D3B0EB510FE0D14FF071
:10334000000984F8019084F8029084F80390212108
:10335000EA4842F0C7FAE948C4F84C90A4F8509003
:103360004121213042F0BEFAA07888B984F802A049
:103370003888C0F3002109B13E1D03E0C0F34020AE
:1033800000B1464626B13068E064B088A4F8500029
:10339000A06BDA4FD94B00F8059062374E46D84AF9
:1033A00003F1210100972DF03FFE30B10120FFF71E
:1033B0002DFAA671002004B010E4D14800F053FCAF
:1033C000CE4D0028287806D060B1504684F801A080
:1033D000A670E07013E028B1504684F802A084F88B
:1033E00001A0F6E7387850B10120FFF70FFAA67177
:1033F000216A21B101208847002000F023FB60787A
:10340000012802D0A0780128D4D1E0780128D1D1B8
:10341000A078E8B16078D8B1B849BAA043F0D8F93B
:10342000B748C178437902798DE80E0083784278F5
:103430000178B8A043F0CCF9B049BEA0213143F0E7
:10344000C7F9AE4AAE492132AC4800F01BFBB1E7E8
:1034500060780028AED028780028ABD0A749A9A072
:1034600043F0B6F9A549B3A0213143F0B1F9A3491E
:10347000A2482131FFF716FA9CE74FF0FF309AE798
:1034800070B59F4E0C464C3E0546326A0AB100208C
:103490009047002000F0D6FA307910B9322008F0B9
:1034A00068FD4CB1204642F05CFAC2B22146284683
:1034B0002CF028FFC0B270BD0020F6E72DE9FF5FB9
:1034C00000210646009101910291ADF80C10B28CDA
:1034D0000846A2F525430F465A3B56D1B6F826803A
:1034E0002825EA4628FA00F2D20703D0735B2AF8AF
:1034F0001030AD1C401C0628F4DB705BADF80C00EE
:10350000DFF8FC910024A9F14C0989F8014089F801
:10351000024089F8034021217848AD1C42F0E2F9CD
:1035200077484121046084807448213042F0DAF900
:1035300028FA04F0C00725D04CB3012C32D0022C5D
:103540003AD0DFF8B8B104EB84170BF1620B07EB4C
:103550000B003AF814207119C33842F09BF93AF87D
:103560001420002002EB0B01C33FC855D9F82010EE
:10357000074621B101208847002000F063FA3AF89D
:1035800014000544641C062CD2DB384613E75B4864
:10359000BDF800207119213042F0CDF9012189F8E0
:1035A000031015E0BDF802207119554842F072F978
:1035B000012089F802000BE0504900200870BDF896
:1035C000042071194D4842F065F9012189F8011074
:1035D0000127D4E73EB50288732191435DD1FFF7FF
:1035E0006DFF012859D146484C384178012902D055
:1035F0008178012951D1C17801294ED18178404C7F
:10360000E1B14178D1B13D494FA043F0E1F8E07814
:10361000627921798DE80700A378627821784EA03D
:1036200043F0D6F8354954A0213143F0D1F8334A5C
:1036300021462132314800F025FA2EE04178012957
:1036400007D08078002828D02D4800F00CFB78B1F6
:1036500023E02A493CA043F0BBF8284946A0213189
:1036600043F0B6F8254925482131FFF71BF914E04E
:10367000E078627921798DE80700A3786278217873
:1036800035A043F0A5F81D493BA0213143F0A0F837
:103690001A491B482131FFF7F3FE01203EBD70B5EA
:1036A000054617480C464C38007890B12878C0F38E
:1036B000810002280DD1A1B2284600F04FFB284618
:1036C000FFF788FF2846FFF7EAFC21462846FFF768
:1036D0004FFB012070BD00005B4C53443A25645DF4
:1036E000675372634D61633A25783A25783A2578B5
:1036F0003A25783A25783A25780A00001C7100208E
:10370000880000205B4C53445D535349443A257371
:103710000A0000005B4C53445D42535349443A2530
:10372000783A25783A25783A25783A25783A2578EE
:103730000A0000005B4C53445D50415353574F52B5
:10374000443A25730A0000005B50425D53534944DC
:103750003A25730A000000005B50425D4253534912
:10376000443A25783A25783A25783A25783A2578E2
:103770003A25780A000000005B50425D50415353E7
:10378000574F52443A25730A000000002DE9F041DA
:10379000FA4C00214FF480556183E171E06B04F134
:1037A000700870B101602946E06B2BF0A2FFE36B5B
:1037B00001210020B4F81AC04A1E2CFA02F61F6834
:1037C0001AE028461AF045FDE0630028EBD118E026
:1037D000F50710D12B2505FB0035ED7B8D420AD175
:1037E0000120904040EA0C006083E07908F8002056
:1037F000401CE07102E0401C8742E9D8491C0F29B7
:10380000D7DBE079002806D141460854401C0E2839
:10381000FBDB0E20E071BDE8F081D84800220121D9
:10382000406A08F09AB9D54D08B570350126D34CD9
:1038300041F64C58002700231A466946606A08F092
:10384000D2F900980828F6D2DFE800F00416334CCD
:1038500059606C6FE06A10B1FFF7DFFFEBE7AFF282
:1038600045002BF0F6FE02E0012008F082FB2BF071
:10387000F5FE0028DFD0F7E7E06A08B9FFF786FF1A
:103880002878666400F0FFF900F036FBAFF2F11023
:103890002BF0C4FE206B28B108F02BFB3221206BEB
:1038A00008F0E9FA606B0028C5D008F022FB414619
:1038B00023E0606C285C00F0E6F9E179606C491E59
:1038C000884201DB676401E0401C606400F01DFA7F
:1038D000206B0028AFD008F00CFB3221206B08F0E1
:1038E000CAFAA8E7206B08B108F003FB606B002858
:1038F000A1D008F0FEFA40F6C411606BEFE7E66273
:10390000206B0028CED008F0F4FACBE7E76200F095
:10391000FCF900202BF0FBFEFEF78DFF012000F0EC
:1039200091F888E7FEF787FF85E795A042F050FF02
:10393000974813F063FF9748007810B100F0ACF996
:1039400079E7FEF7E6FE76E77FB58C4CA06A0028A3
:103950001CD14FF4006528461AF07BFCA0620028B9
:1039600014D0294641F0BEFF202104F1240008F0C4
:10397000D4F8A26A0021CDE900251B200B46AFF246
:103980005912CDE90201084607F046FC7FBD70B52B
:103990007A4C00256570A570E57021217E4841F0C4
:1039A000A1FF04F14C004121056085807A48213057
:1039B00041F098FFA571E06A30B9E5710F220E2140
:1039C00004F1700041F087FFC4F85250A4F856503B
:1039D000A06B20B94FF480701AF03BFCA06301206B
:1039E000FEF714FFA582A564BDE870400120FEF734
:1039F000C1BE7CB5FFF7CBFFFFF7A6FF644813F00D
:103A00001CFF5E4D287900281BD1286B002440B98B
:103A1000009432230022614905F13000019408F03E
:103A2000BEF9686B48B95548009441F64C530022E2
:103A30005B493430019408F0B2F9BDE87C40FEF7F0
:103A40003FBE7CBD70B54D4D0446012807D02C709B
:103A500000202BF05CFEBDE87040FEF72BBE08F0A6
:103A600055F9E8612C702CF06DFD2879012807D0FC
:103A700001202BF04CFE2BF063FFBDE87040B8E74F
:103A80000020F6E7F8B53D4C0E461546216A07467C
:103A900009B1002088470020FFF7D4FF207910B932
:103AA000322008F066FA7DB1284641F05AFFC4B2D0
:103AB000384641F056FFC1B22B4632463846009494
:103AC0002CF04DFCC0B2F8BD0020F0E72DE9F05F0E
